{
  "_format": "hh-sol-artifact-1",
  "contractName": "NFT",
  "sourceName": "contracts/NFT.sol",
  "abi": [
    {
      "inputs": [
        {
          "internalType": "address",
          "name": "markePlaceAddress",
          "type": "address"
        }
      ],
      "stateMutability": "nonpayable",
      "type": "constructor"
    },
    {
      "anonymous": false,
      "inputs": [
        {
          "indexed": true,
          "internalType": "address",
          "name": "owner",
          "type": "address"
        },
        {
          "indexed": true,
          "internalType": "address",
          "name": "operator",
          "type": "address"
        },
        {
          "indexed": false,
          "internalType": "bool",
          "name": "approved",
          "type": "bool"
        }
      ],
      "name": "ApprovalForAll",
      "type": "event"
    },
    {
      "anonymous": false,
      "inputs": [
        {
          "indexed": false,
          "internalType": "uint256",
          "name": "tokenId",
          "type": "uint256"
        }
      ],
      "name": "TokenCreated",
      "type": "event"
    },
    {
      "anonymous": false,
      "inputs": [
        {
          "indexed": true,
          "internalType": "address",
          "name": "operator",
          "type": "address"
        },
        {
          "indexed": true,
          "internalType": "address",
          "name": "from",
          "type": "address"
        },
        {
          "indexed": true,
          "internalType": "address",
          "name": "to",
          "type": "address"
        },
        {
          "indexed": false,
          "internalType": "uint256[]",
          "name": "tokenIds",
          "type": "uint256[]"
        },
        {
          "indexed": false,
          "internalType": "uint256[]",
          "name": "amounts",
          "type": "uint256[]"
        }
      ],
      "name": "TranferBatch",
      "type": "event"
    },
    {
      "anonymous": false,
      "inputs": [
        {
          "indexed": true,
          "internalType": "address",
          "name": "operator",
          "type": "address"
        },
        {
          "indexed": true,
          "internalType": "address",
          "name": "from",
          "type": "address"
        },
        {
          "indexed": true,
          "internalType": "address",
          "name": "to",
          "type": "address"
        },
        {
          "indexed": false,
          "internalType": "uint256",
          "name": "tokenId",
          "type": "uint256"
        },
        {
          "indexed": false,
          "internalType": "uint256",
          "name": "amount",
          "type": "uint256"
        }
      ],
      "name": "TransferSingle",
      "type": "event"
    },
    {
      "inputs": [
        {
          "internalType": "address",
          "name": "_from",
          "type": "address"
        },
        {
          "internalType": "address",
          "name": "_to",
          "type": "address"
        },
        {
          "internalType": "uint256",
          "name": "_tokenId",
          "type": "uint256"
        },
        {
          "internalType": "uint256",
          "name": "amount",
          "type": "uint256"
        }
      ],
      "name": "_transfer",
      "outputs": [],
      "stateMutability": "nonpayable",
      "type": "function"
    },
    {
      "inputs": [
        {
          "internalType": "address",
          "name": "_account",
          "type": "address"
        },
        {
          "internalType": "uint256",
          "name": "_tokenId",
          "type": "uint256"
        }
      ],
      "name": "balanceOf",
      "outputs": [
        {
          "internalType": "uint256",
          "name": "",
          "type": "uint256"
        }
      ],
      "stateMutability": "view",
      "type": "function"
    },
    {
      "inputs": [
        {
          "internalType": "address[]",
          "name": "_accounts",
          "type": "address[]"
        },
        {
          "internalType": "uint256[]",
          "name": "_tokenIds",
          "type": "uint256[]"
        }
      ],
      "name": "balanceOfBatch",
      "outputs": [
        {
          "internalType": "uint256[]",
          "name": "",
          "type": "uint256[]"
        }
      ],
      "stateMutability": "view",
      "type": "function"
    },
    {
      "inputs": [
        {
          "internalType": "uint256",
          "name": "amount",
          "type": "uint256"
        },
        {
          "internalType": "string",
          "name": "tokenURI",
          "type": "string"
        }
      ],
      "name": "createToken",
      "outputs": [
        {
          "internalType": "uint256",
          "name": "",
          "type": "uint256"
        }
      ],
      "stateMutability": "nonpayable",
      "type": "function"
    },
    {
      "inputs": [
        {
          "internalType": "address",
          "name": "_owner",
          "type": "address"
        },
        {
          "internalType": "address",
          "name": "_operator",
          "type": "address"
        }
      ],
      "name": "isApprovedForAll",
      "outputs": [
        {
          "internalType": "bool",
          "name": "",
          "type": "bool"
        }
      ],
      "stateMutability": "view",
      "type": "function"
    },
    {
      "inputs": [
        {
          "internalType": "address",
          "name": "_from",
          "type": "address"
        },
        {
          "internalType": "address",
          "name": "_to",
          "type": "address"
        },
        {
          "internalType": "uint256[]",
          "name": "_tokenIds",
          "type": "uint256[]"
        },
        {
          "internalType": "uint256[]",
          "name": "amounts",
          "type": "uint256[]"
        }
      ],
      "name": "safeBatchTransferFrom",
      "outputs": [],
      "stateMutability": "nonpayable",
      "type": "function"
    },
    {
      "inputs": [
        {
          "internalType": "address",
          "name": "_from",
          "type": "address"
        },
        {
          "internalType": "address",
          "name": "_to",
          "type": "address"
        },
        {
          "internalType": "uint256",
          "name": "_tokenId",
          "type": "uint256"
        },
        {
          "internalType": "uint256",
          "name": "amount",
          "type": "uint256"
        }
      ],
      "name": "safeTransferFrom",
      "outputs": [],
      "stateMutability": "nonpayable",
      "type": "function"
    },
    {
      "inputs": [
        {
          "internalType": "address",
          "name": "_operator",
          "type": "address"
        },
        {
          "internalType": "bool",
          "name": "_approved",
          "type": "bool"
        }
      ],
      "name": "setApprovalForAll",
      "outputs": [],
      "stateMutability": "nonpayable",
      "type": "function"
    },
    {
      "inputs": [
        {
          "internalType": "uint256",
          "name": "_id",
          "type": "uint256"
        },
        {
          "internalType": "string",
          "name": "_uri",
          "type": "string"
        }
      ],
      "name": "setTokenURI",
      "outputs": [],
      "stateMutability": "nonpayable",
      "type": "function"
    },
    {
      "inputs": [
        {
          "internalType": "bytes4",
          "name": "interfaceId",
          "type": "bytes4"
        }
      ],
      "name": "supportsInterface",
      "outputs": [
        {
          "internalType": "bool",
          "name": "",
          "type": "bool"
        }
      ],
      "stateMutability": "pure",
      "type": "function"
    },
    {
      "inputs": [
        {
          "internalType": "uint256",
          "name": "",
          "type": "uint256"
        }
      ],
      "name": "tokenURIs",
      "outputs": [
        {
          "internalType": "string",
          "name": "",
          "type": "string"
        }
      ],
      "stateMutability": "view",
      "type": "function"
    }
  ],
  "bytecode": "0x60806040523480156200001157600080fd5b5060405162001e3938038062001e39833981810160405281019062000037919062000096565b80600360006101000a81548173ffffffffffffffffffffffffffffffffffffffff021916908373ffffffffffffffffffffffffffffffffffffffff1602179055505062000110565b6000815190506200009081620000f6565b92915050565b600060208284031215620000a957600080fd5b6000620000b9848285016200007f565b91505092915050565b6000620000cf82620000d6565b9050919050565b600073ffffffffffffffffffffffffffffffffffffffff82169050919050565b6200010181620000c2565b81146200010d57600080fd5b50565b611d1980620001206000396000f3fe608060405234801561001057600080fd5b50600436106100a85760003560e01c80631d6456c4116100715780631d6456c4146101755780634e1273f4146101915780636c8b703f146101c1578063a22cb465146101f1578063e985e9c51461020d578063fba0ee641461023d576100a8565b8062fdd58e146100ad57806301ffc9a7146100dd5780630febdd491461010d578063162094c4146101295780631b3efe8514610145575b600080fd5b6100c760048036038101906100c29190611290565b610259565b6040516100d49190611725565b60405180910390f35b6100f760048036038101906100f29190611338565b610322565b6040516101049190611608565b60405180910390f35b610127600480360381019061012291906111f1565b610354565b005b610143600480360381019061013e919061138a565b610519565b005b61015f600480360381019061015a919061138a565b610545565b60405161016c9190611725565b60405180910390f35b61018f600480360381019061018a91906111f1565b610665565b005b6101ab60048036038101906101a691906112cc565b6107c8565b6040516101b891906115af565b60405180910390f35b6101db60048036038101906101d69190611361565b61097b565b6040516101e89190611623565b60405180910390f35b61020b60048036038101906102069190611254565b610a1b565b005b61022760048036038101906102229190611122565b610b18565b6040516102349190611608565b60405180910390f35b6102576004803603810190610252919061115e565b610bac565b005b60008073ffffffffffffffffffffffffffffffffffffffff168373ffffffffffffffffffffffffffffffffffffffff1614156102ca576040517f08c379a00000000000000000000000000000000000000000000000000000000081526004016102c190611705565b60405180910390fd5b60008083815260200190815260200160002060008473ffffffffffffffffffffffffffffffffffffffff1673ffffffffffffffffffffffffffffffffffffffff16815260200190815260200160002054905092915050565b600063d9b67a2660e01b827bffffffffffffffffffffffffffffffffffffffffffffffffffffffff1916149050919050565b3373ffffffffffffffffffffffffffffffffffffffff168473ffffffffffffffffffffffffffffffffffffffff16148061039457506103938433610b18565b5b6103d3576040517f08c379a00000000000000000000000000000000000000000000000000000000081526004016103ca90611665565b60405180910390fd5b600073ffffffffffffffffffffffffffffffffffffffff168373ffffffffffffffffffffffffffffffffffffffff1614610442576040517f08c379a000000000000000000000000000000000000000000000000000000000815260040161043990611685565b60405180910390fd5b61044e84848484610665565b8273ffffffffffffffffffffffffffffffffffffffff168473ffffffffffffffffffffffffffffffffffffffff163373ffffffffffffffffffffffffffffffffffffffff167fc3d58168c5ae7397731d063d5bbf3d657854427343f4c083240f7aacaa2d0f6285856040516104c4929190611740565b60405180910390a46104d4610e61565b610513576040517f08c379a000000000000000000000000000000000000000000000000000000000815260040161050a906116a5565b60405180910390fd5b50505050565b80600460008481526020019081526020016000209080519060200190610540929190610e97565b505050565b60006105516002610e6a565b600061055d6002610e80565b90508360008083815260200190815260200160002060003373ffffffffffffffffffffffffffffffffffffffff1673ffffffffffffffffffffffffffffffffffffffff16815260200190815260200160002060008282546105be919061186c565b92505081905550826004600083815260200190815260200160002090805190602001906105ec929190610e97565b506105f78184610519565b610624600360009054906101000a900473ffffffffffffffffffffffffffffffffffffffff166001610a1b565b7f5871761b381266e7e47309f0821d5b396364ebb6371d878871cac5393cb93ea8816040516106539190611725565b60405180910390a18091505092915050565b600080600084815260200190815260200160002060008673ffffffffffffffffffffffffffffffffffffffff1673ffffffffffffffffffffffffffffffffffffffff168152602001908152602001600020549050818110156106fc576040517f08c379a00000000000000000000000000000000000000000000000000000000081526004016106f3906116e5565b60405180910390fd5b818161070891906118c2565b60008085815260200190815260200160002060008773ffffffffffffffffffffffffffffffffffffffff1673ffffffffffffffffffffffffffffffffffffffff168152602001908152602001600020819055508160008085815260200190815260200160002060008673ffffffffffffffffffffffffffffffffffffffff1673ffffffffffffffffffffffffffffffffffffffff16815260200190815260200160002060008282546107ba919061186c565b925050819055505050505050565b6060815183511461080e576040517f08c379a0000000000000000000000000000000000000000000000000000000008152600401610805906116c5565b60405180910390fd5b6000835167ffffffffffffffff811115610851577f4e487b7100000000000000000000000000000000000000000000000000000000600052604160045260246000fd5b60405190808252806020026020018201604052801561087f5781602001602082028036833780820191505090505b50905060005b8451811015610970576109188582815181106108ca577f4e487b7100000000000000000000000000000000000000000000000000000000600052603260045260246000fd5b602002602001015185838151811061090b577f4e487b7100000000000000000000000000000000000000000000000000000000600052603260045260246000fd5b6020026020010151610259565b828281518110610951577f4e487b7100000000000000000000000000000000000000000000000000000000600052603260045260246000fd5b602002602001018181525050808061096890611a0f565b915050610885565b508091505092915050565b6004602052806000526040600020600091509050805461099a906119ac565b80601f01602080910402602001604051908101604052809291908181526020018280546109c6906119ac565b8015610a135780601f106109e857610100808354040283529160200191610a13565b820191906000526020600020905b8154815290600101906020018083116109f657829003601f168201915b505050505081565b80600160003373ffffffffffffffffffffffffffffffffffffffff1673ffffffffffffffffffffffffffffffffffffffff16815260200190815260200160002060008473ffffffffffffffffffffffffffffffffffffffff1673ffffffffffffffffffffffffffffffffffffffff16815260200190815260200160002060006101000a81548160ff0219169083151502179055508173ffffffffffffffffffffffffffffffffffffffff163373ffffffffffffffffffffffffffffffffffffffff167f17307eab39ab6107e8899845ad3d59bd9653f200f220920489ca2b5937696c3183604051610b0c9190611608565b60405180910390a35050565b6000600160008473ffffffffffffffffffffffffffffffffffffffff1673ffffffffffffffffffffffffffffffffffffffff16815260200190815260200160002060008373ffffffffffffffffffffffffffffffffffffffff1673ffffffffffffffffffffffffffffffffffffffff16815260200190815260200160002060009054906101000a900460ff16905092915050565b3373ffffffffffffffffffffffffffffffffffffffff168473ffffffffffffffffffffffffffffffffffffffff161480610bec5750610beb8433610b18565b5b610c2b576040517f08c379a0000000000000000000000000000000000000000000000000000000008152600401610c2290611665565b60405180910390fd5b600073ffffffffffffffffffffffffffffffffffffffff168373ffffffffffffffffffffffffffffffffffffffff1614610c9a576040517f08c379a0000000000000000000000000000000000000000000000000000000008152600401610c9190611685565b60405180910390fd5b8051825114610cde576040517f08c379a0000000000000000000000000000000000000000000000000000000008152600401610cd590611645565b60405180910390fd5b60005b8251811015610ddc576000838281518110610d25577f4e487b7100000000000000000000000000000000000000000000000000000000600052603260045260246000fd5b602002602001015190506000838381518110610d6a577f4e487b7100000000000000000000000000000000000000000000000000000000600052603260045260246000fd5b60200260200101519050610d8087878484610665565b610d88610e8e565b610dc7576040517f08c379a0000000000000000000000000000000000000000000000000000000008152600401610dbe906116a5565b60405180910390fd5b50508080610dd490611a0f565b915050610ce1565b508273ffffffffffffffffffffffffffffffffffffffff168473ffffffffffffffffffffffffffffffffffffffff163373ffffffffffffffffffffffffffffffffffffffff167f304d85e78a127d4497bfc5cbf5af163e1ad61fe463ce8cddb2c24d254002f57f8585604051610e539291906115d1565b60405180910390a450505050565b60006001905090565b6001816000016000828254019250508190555050565b600081600001549050919050565b60006001905090565b828054610ea3906119ac565b90600052602060002090601f016020900481019282610ec55760008555610f0c565b82601f10610ede57805160ff1916838001178555610f0c565b82800160010185558215610f0c579182015b82811115610f0b578251825591602001919060010190610ef0565b5b509050610f199190610f1d565b5090565b5b80821115610f36576000816000905550600101610f1e565b5090565b6000610f4d610f488461178e565b611769565b90508083825260208201905082856020860282011115610f6c57600080fd5b60005b85811015610f9c5781610f828882611050565b845260208401935060208301925050600181019050610f6f565b5050509392505050565b6000610fb9610fb4846117ba565b611769565b90508083825260208201905082856020860282011115610fd857600080fd5b60005b858110156110085781610fee888261110d565b845260208401935060208301925050600181019050610fdb565b5050509392505050565b6000611025611020846117e6565b611769565b90508281526020810184848401111561103d57600080fd5b61104884828561196a565b509392505050565b60008135905061105f81611c87565b92915050565b600082601f83011261107657600080fd5b8135611086848260208601610f3a565b91505092915050565b600082601f8301126110a057600080fd5b81356110b0848260208601610fa6565b91505092915050565b6000813590506110c881611c9e565b92915050565b6000813590506110dd81611cb5565b92915050565b600082601f8301126110f457600080fd5b8135611104848260208601611012565b91505092915050565b60008135905061111c81611ccc565b92915050565b6000806040838503121561113557600080fd5b600061114385828601611050565b925050602061115485828601611050565b9150509250929050565b6000806000806080858703121561117457600080fd5b600061118287828801611050565b945050602061119387828801611050565b935050604085013567ffffffffffffffff8111156111b057600080fd5b6111bc8782880161108f565b925050606085013567ffffffffffffffff8111156111d957600080fd5b6111e58782880161108f565b91505092959194509250565b6000806000806080858703121561120757600080fd5b600061121587828801611050565b945050602061122687828801611050565b93505060406112378782880161110d565b92505060606112488782880161110d565b91505092959194509250565b6000806040838503121561126757600080fd5b600061127585828601611050565b9250506020611286858286016110b9565b9150509250929050565b600080604083850312156112a357600080fd5b60006112b185828601611050565b92505060206112c28582860161110d565b9150509250929050565b600080604083850312156112df57600080fd5b600083013567ffffffffffffffff8111156112f957600080fd5b61130585828601611065565b925050602083013567ffffffffffffffff81111561132257600080fd5b61132e8582860161108f565b9150509250929050565b60006020828403121561134a57600080fd5b6000611358848285016110ce565b91505092915050565b60006020828403121561137357600080fd5b60006113818482850161110d565b91505092915050565b6000806040838503121561139d57600080fd5b60006113ab8582860161110d565b925050602083013567ffffffffffffffff8111156113c857600080fd5b6113d4858286016110e3565b9150509250929050565b60006113ea8383611591565b60208301905092915050565b600061140182611827565b61140b818561184a565b935061141683611817565b8060005b8381101561144757815161142e88826113de565b97506114398361183d565b92505060018101905061141a565b5085935050505092915050565b61145d81611908565b82525050565b600061146e82611832565b611478818561185b565b9350611488818560208601611979565b61149181611ae5565b840191505092915050565b60006114a960268361185b565b91506114b482611af6565b604082019050919050565b60006114cc60338361185b565b91506114d782611b45565b604082019050919050565b60006114ef600c8361185b565b91506114fa82611b94565b602082019050919050565b6000611512601b8361185b565b915061151d82611bbd565b602082019050919050565b600061153560278361185b565b915061154082611be6565b604082019050919050565b600061155860158361185b565b915061156382611c35565b602082019050919050565b600061157b600f8361185b565b915061158682611c5e565b602082019050919050565b61159a81611960565b82525050565b6115a981611960565b82525050565b600060208201905081810360008301526115c981846113f6565b905092915050565b600060408201905081810360008301526115eb81856113f6565b905081810360208301526115ff81846113f6565b90509392505050565b600060208201905061161d6000830184611454565b92915050565b6000602082019050818103600083015261163d8184611463565b905092915050565b6000602082019050818103600083015261165e8161149c565b9050919050565b6000602082019050818103600083015261167e816114bf565b9050919050565b6000602082019050818103600083015261169e816114e2565b9050919050565b600060208201905081810360008301526116be81611505565b9050919050565b600060208201905081810360008301526116de81611528565b9050919050565b600060208201905081810360008301526116fe8161154b565b9050919050565b6000602082019050818103600083015261171e8161156e565b9050919050565b600060208201905061173a60008301846115a0565b92915050565b600060408201905061175560008301856115a0565b61176260208301846115a0565b9392505050565b6000611773611784565b905061177f82826119de565b919050565b6000604051905090565b600067ffffffffffffffff8211156117a9576117a8611ab6565b5b602082029050602081019050919050565b600067ffffffffffffffff8211156117d5576117d4611ab6565b5b602082029050602081019050919050565b600067ffffffffffffffff82111561180157611800611ab6565b5b61180a82611ae5565b9050602081019050919050565b6000819050602082019050919050565b600081519050919050565b600081519050919050565b6000602082019050919050565b600082825260208201905092915050565b600082825260208201905092915050565b600061187782611960565b915061188283611960565b9250827fffffffffffffffffffffffffffffffffffffffffffffffffffffffffffffffff038211156118b7576118b6611a58565b5b828201905092915050565b60006118cd82611960565b91506118d883611960565b9250828210156118eb576118ea611a58565b5b828203905092915050565b600061190182611940565b9050919050565b60008115159050919050565b60007fffffffff0000000000000000000000000000000000000000000000000000000082169050919050565b600073ffffffffffffffffffffffffffffffffffffffff82169050919050565b6000819050919050565b82818337600083830152505050565b60005b8381101561199757808201518184015260208101905061197c565b838111156119a6576000848401525b50505050565b600060028204905060018216806119c457607f821691505b602082108114156119d8576119d7611a87565b5b50919050565b6119e782611ae5565b810181811067ffffffffffffffff82111715611a0657611a05611ab6565b5b80604052505050565b6000611a1a82611960565b91507fffffffffffffffffffffffffffffffffffffffffffffffffffffffffffffffff821415611a4d57611a4c611a58565b5b600182019050919050565b7f4e487b7100000000000000000000000000000000000000000000000000000000600052601160045260246000fd5b7f4e487b7100000000000000000000000000000000000000000000000000000000600052602260045260246000fd5b7f4e487b7100000000000000000000000000000000000000000000000000000000600052604160045260246000fd5b6000601f19601f8301169050919050565b7f49647320616e6420616d6f756e7420617265206e6f74207468652073616d652060008201527f6c656e6774680000000000000000000000000000000000000000000000000000602082015250565b7f4d73672e73656e646572206973206e6f7420746865206f776e6572206f72206160008201527f7070726f76656420746f207472616e7366657200000000000000000000000000602082015250565b7f4164647265737320697320300000000000000000000000000000000000000000600082015250565b7f5265636569766572206973206e6f7420696d706c656d656e7465640000000000600082015250565b7f4163636f756e747320616e642049647320617265206e6f74206f662073616d6560008201527f206c656e67746800000000000000000000000000000000000000000000000000602082015250565b7f496e73756666696369656e742042616c616e6163650000000000000000000000600082015250565b7f41646472657373206973207a65726f0000000000000000000000000000000000600082015250565b611c90816118f6565b8114611c9b57600080fd5b50565b611ca781611908565b8114611cb257600080fd5b50565b611cbe81611914565b8114611cc957600080fd5b50565b611cd581611960565b8114611ce057600080fd5b5056fea2646970667358221220cc3959d8e489c86da7bb6f159c8e36db3bf5d6ea46c5e1550b78729bf2c6115364736f6c63430008040033",
  "linkReferences": {},
  "deployedLinkReferences": {}
}