{
  "_format": "hh-sol-artifact-1",
  "contractName": "NFT",
  "sourceName": "contracts/NFT.sol",
  "abi": [
    {
      "inputs": [
        {
          "internalType": "address",
          "name": "markePlaceAddress",
          "type": "address"
        }
      ],
      "stateMutability": "nonpayable",
      "type": "constructor"
    },
    {
      "anonymous": false,
      "inputs": [
        {
          "indexed": true,
          "internalType": "address",
          "name": "owner",
          "type": "address"
        },
        {
          "indexed": true,
          "internalType": "address",
          "name": "operator",
          "type": "address"
        },
        {
          "indexed": false,
          "internalType": "bool",
          "name": "approved",
          "type": "bool"
        }
      ],
      "name": "ApprovalForAll",
      "type": "event"
    },
    {
      "anonymous": false,
      "inputs": [
        {
          "indexed": true,
          "internalType": "address",
          "name": "operator",
          "type": "address"
        },
        {
          "indexed": true,
          "internalType": "address",
          "name": "from",
          "type": "address"
        },
        {
          "indexed": true,
          "internalType": "address",
          "name": "to",
          "type": "address"
        },
        {
          "indexed": false,
          "internalType": "uint256[]",
          "name": "tokenIds",
          "type": "uint256[]"
        },
        {
          "indexed": false,
          "internalType": "uint256[]",
          "name": "amounts",
          "type": "uint256[]"
        }
      ],
      "name": "TranferBatch",
      "type": "event"
    },
    {
      "anonymous": false,
      "inputs": [
        {
          "indexed": true,
          "internalType": "address",
          "name": "operator",
          "type": "address"
        },
        {
          "indexed": true,
          "internalType": "address",
          "name": "from",
          "type": "address"
        },
        {
          "indexed": true,
          "internalType": "address",
          "name": "to",
          "type": "address"
        },
        {
          "indexed": false,
          "internalType": "uint256",
          "name": "tokenId",
          "type": "uint256"
        },
        {
          "indexed": false,
          "internalType": "uint256",
          "name": "amount",
          "type": "uint256"
        }
      ],
      "name": "TransferSingle",
      "type": "event"
    },
    {
      "inputs": [
        {
          "internalType": "address",
          "name": "_from",
          "type": "address"
        },
        {
          "internalType": "address",
          "name": "_to",
          "type": "address"
        },
        {
          "internalType": "uint256",
          "name": "_tokenId",
          "type": "uint256"
        },
        {
          "internalType": "uint256",
          "name": "amount",
          "type": "uint256"
        }
      ],
      "name": "_transfer",
      "outputs": [],
      "stateMutability": "nonpayable",
      "type": "function"
    },
    {
      "inputs": [
        {
          "internalType": "address",
          "name": "_account",
          "type": "address"
        },
        {
          "internalType": "uint256",
          "name": "_tokenId",
          "type": "uint256"
        }
      ],
      "name": "balanceOf",
      "outputs": [
        {
          "internalType": "uint256",
          "name": "",
          "type": "uint256"
        }
      ],
      "stateMutability": "view",
      "type": "function"
    },
    {
      "inputs": [
        {
          "internalType": "address[]",
          "name": "_accounts",
          "type": "address[]"
        },
        {
          "internalType": "uint256[]",
          "name": "_tokenIds",
          "type": "uint256[]"
        }
      ],
      "name": "balanceOfBatch",
      "outputs": [
        {
          "internalType": "uint256[]",
          "name": "",
          "type": "uint256[]"
        }
      ],
      "stateMutability": "view",
      "type": "function"
    },
    {
      "inputs": [
        {
          "internalType": "uint256",
          "name": "amount",
          "type": "uint256"
        },
        {
          "internalType": "string",
          "name": "tokenURI",
          "type": "string"
        }
      ],
      "name": "createToken",
      "outputs": [
        {
          "internalType": "uint256",
          "name": "",
          "type": "uint256"
        }
      ],
      "stateMutability": "nonpayable",
      "type": "function"
    },
    {
      "inputs": [
        {
          "internalType": "address",
          "name": "_owner",
          "type": "address"
        },
        {
          "internalType": "address",
          "name": "_operator",
          "type": "address"
        }
      ],
      "name": "isApprovedForAll",
      "outputs": [
        {
          "internalType": "bool",
          "name": "",
          "type": "bool"
        }
      ],
      "stateMutability": "view",
      "type": "function"
    },
    {
      "inputs": [
        {
          "internalType": "address",
          "name": "_from",
          "type": "address"
        },
        {
          "internalType": "address",
          "name": "_to",
          "type": "address"
        },
        {
          "internalType": "uint256[]",
          "name": "_tokenIds",
          "type": "uint256[]"
        },
        {
          "internalType": "uint256[]",
          "name": "amounts",
          "type": "uint256[]"
        }
      ],
      "name": "safeBatchTransferFrom",
      "outputs": [],
      "stateMutability": "nonpayable",
      "type": "function"
    },
    {
      "inputs": [
        {
          "internalType": "address",
          "name": "_from",
          "type": "address"
        },
        {
          "internalType": "address",
          "name": "_to",
          "type": "address"
        },
        {
          "internalType": "uint256",
          "name": "_tokenId",
          "type": "uint256"
        },
        {
          "internalType": "uint256",
          "name": "amount",
          "type": "uint256"
        }
      ],
      "name": "safeTransferFrom",
      "outputs": [],
      "stateMutability": "nonpayable",
      "type": "function"
    },
    {
      "inputs": [
        {
          "internalType": "address",
          "name": "_operator",
          "type": "address"
        },
        {
          "internalType": "bool",
          "name": "_approved",
          "type": "bool"
        }
      ],
      "name": "setApprovalForAll",
      "outputs": [],
      "stateMutability": "nonpayable",
      "type": "function"
    },
    {
      "inputs": [
        {
          "internalType": "uint256",
          "name": "_id",
          "type": "uint256"
        },
        {
          "internalType": "string",
          "name": "_uri",
          "type": "string"
        }
      ],
      "name": "setTokenURI",
      "outputs": [],
      "stateMutability": "nonpayable",
      "type": "function"
    },
    {
      "inputs": [
        {
          "internalType": "bytes4",
          "name": "interfaceId",
          "type": "bytes4"
        }
      ],
      "name": "supportsInterface",
      "outputs": [
        {
          "internalType": "bool",
          "name": "",
          "type": "bool"
        }
      ],
      "stateMutability": "pure",
      "type": "function"
    },
    {
      "inputs": [
        {
          "internalType": "uint256",
          "name": "",
          "type": "uint256"
        }
      ],
      "name": "tokenURIs",
      "outputs": [
        {
          "internalType": "string",
          "name": "",
          "type": "string"
        }
      ],
      "stateMutability": "view",
      "type": "function"
    }
  ],
  "bytecode": "0x60806040523480156200001157600080fd5b5060405162001e0238038062001e02833981810160405281019062000037919062000096565b80600360006101000a81548173ffffffffffffffffffffffffffffffffffffffff021916908373ffffffffffffffffffffffffffffffffffffffff1602179055505062000110565b6000815190506200009081620000f6565b92915050565b600060208284031215620000a957600080fd5b6000620000b9848285016200007f565b91505092915050565b6000620000cf82620000d6565b9050919050565b600073ffffffffffffffffffffffffffffffffffffffff82169050919050565b6200010181620000c2565b81146200010d57600080fd5b50565b611ce280620001206000396000f3fe608060405234801561001057600080fd5b50600436106100a85760003560e01c80631d6456c4116100715780631d6456c4146101755780634e1273f4146101915780636c8b703f146101c1578063a22cb465146101f1578063e985e9c51461020d578063fba0ee641461023d576100a8565b8062fdd58e146100ad57806301ffc9a7146100dd5780630febdd491461010d578063162094c4146101295780631b3efe8514610145575b600080fd5b6100c760048036038101906100c29190611259565b610259565b6040516100d491906116ee565b60405180910390f35b6100f760048036038101906100f29190611301565b610322565b60405161010491906115d1565b60405180910390f35b610127600480360381019061012291906111ba565b610354565b005b610143600480360381019061013e9190611353565b610519565b005b61015f600480360381019061015a9190611353565b610545565b60405161016c91906116ee565b60405180910390f35b61018f600480360381019061018a91906111ba565b61062e565b005b6101ab60048036038101906101a69190611295565b610791565b6040516101b89190611578565b60405180910390f35b6101db60048036038101906101d6919061132a565b610944565b6040516101e891906115ec565b60405180910390f35b61020b6004803603810190610206919061121d565b6109e4565b005b610227600480360381019061022291906110eb565b610ae1565b60405161023491906115d1565b60405180910390f35b61025760048036038101906102529190611127565b610b75565b005b60008073ffffffffffffffffffffffffffffffffffffffff168373ffffffffffffffffffffffffffffffffffffffff1614156102ca576040517f08c379a00000000000000000000000000000000000000000000000000000000081526004016102c1906116ce565b60405180910390fd5b60008083815260200190815260200160002060008473ffffffffffffffffffffffffffffffffffffffff1673ffffffffffffffffffffffffffffffffffffffff16815260200190815260200160002054905092915050565b600063d9b67a2660e01b827bffffffffffffffffffffffffffffffffffffffffffffffffffffffff1916149050919050565b3373ffffffffffffffffffffffffffffffffffffffff168473ffffffffffffffffffffffffffffffffffffffff16148061039457506103938433610ae1565b5b6103d3576040517f08c379a00000000000000000000000000000000000000000000000000000000081526004016103ca9061162e565b60405180910390fd5b600073ffffffffffffffffffffffffffffffffffffffff168373ffffffffffffffffffffffffffffffffffffffff1614610442576040517f08c379a00000000000000000000000000000000000000000000000000000000081526004016104399061164e565b60405180910390fd5b61044e8484848461062e565b8273ffffffffffffffffffffffffffffffffffffffff168473ffffffffffffffffffffffffffffffffffffffff163373ffffffffffffffffffffffffffffffffffffffff167fc3d58168c5ae7397731d063d5bbf3d657854427343f4c083240f7aacaa2d0f6285856040516104c4929190611709565b60405180910390a46104d4610e2a565b610513576040517f08c379a000000000000000000000000000000000000000000000000000000000815260040161050a9061166e565b60405180910390fd5b50505050565b80600460008481526020019081526020016000209080519060200190610540929190610e60565b505050565b60006105516002610e33565b600061055d6002610e49565b90508360008083815260200190815260200160002060003373ffffffffffffffffffffffffffffffffffffffff1673ffffffffffffffffffffffffffffffffffffffff16815260200190815260200160002060008282546105be9190611835565b92505081905550826004600083815260200190815260200160002090805190602001906105ec929190610e60565b506105f78184610519565b610624600360009054906101000a900473ffffffffffffffffffffffffffffffffffffffff1660016109e4565b8091505092915050565b600080600084815260200190815260200160002060008673ffffffffffffffffffffffffffffffffffffffff1673ffffffffffffffffffffffffffffffffffffffff168152602001908152602001600020549050818110156106c5576040517f08c379a00000000000000000000000000000000000000000000000000000000081526004016106bc906116ae565b60405180910390fd5b81816106d1919061188b565b60008085815260200190815260200160002060008773ffffffffffffffffffffffffffffffffffffffff1673ffffffffffffffffffffffffffffffffffffffff168152602001908152602001600020819055508160008085815260200190815260200160002060008673ffffffffffffffffffffffffffffffffffffffff1673ffffffffffffffffffffffffffffffffffffffff16815260200190815260200160002060008282546107839190611835565b925050819055505050505050565b606081518351146107d7576040517f08c379a00000000000000000000000000000000000000000000000000000000081526004016107ce9061168e565b60405180910390fd5b6000835167ffffffffffffffff81111561081a577f4e487b7100000000000000000000000000000000000000000000000000000000600052604160045260246000fd5b6040519080825280602002602001820160405280156108485781602001602082028036833780820191505090505b50905060005b8451811015610939576108e1858281518110610893577f4e487b7100000000000000000000000000000000000000000000000000000000600052603260045260246000fd5b60200260200101518583815181106108d4577f4e487b7100000000000000000000000000000000000000000000000000000000600052603260045260246000fd5b6020026020010151610259565b82828151811061091a577f4e487b7100000000000000000000000000000000000000000000000000000000600052603260045260246000fd5b6020026020010181815250508080610931906119d8565b91505061084e565b508091505092915050565b6004602052806000526040600020600091509050805461096390611975565b80601f016020809104026020016040519081016040528092919081815260200182805461098f90611975565b80156109dc5780601f106109b1576101008083540402835291602001916109dc565b820191906000526020600020905b8154815290600101906020018083116109bf57829003601f168201915b505050505081565b80600160003373ffffffffffffffffffffffffffffffffffffffff1673ffffffffffffffffffffffffffffffffffffffff16815260200190815260200160002060008473ffffffffffffffffffffffffffffffffffffffff1673ffffffffffffffffffffffffffffffffffffffff16815260200190815260200160002060006101000a81548160ff0219169083151502179055508173ffffffffffffffffffffffffffffffffffffffff163373ffffffffffffffffffffffffffffffffffffffff167f17307eab39ab6107e8899845ad3d59bd9653f200f220920489ca2b5937696c3183604051610ad591906115d1565b60405180910390a35050565b6000600160008473ffffffffffffffffffffffffffffffffffffffff1673ffffffffffffffffffffffffffffffffffffffff16815260200190815260200160002060008373ffffffffffffffffffffffffffffffffffffffff1673ffffffffffffffffffffffffffffffffffffffff16815260200190815260200160002060009054906101000a900460ff16905092915050565b3373ffffffffffffffffffffffffffffffffffffffff168473ffffffffffffffffffffffffffffffffffffffff161480610bb55750610bb48433610ae1565b5b610bf4576040517f08c379a0000000000000000000000000000000000000000000000000000000008152600401610beb9061162e565b60405180910390fd5b600073ffffffffffffffffffffffffffffffffffffffff168373ffffffffffffffffffffffffffffffffffffffff1614610c63576040517f08c379a0000000000000000000000000000000000000000000000000000000008152600401610c5a9061164e565b60405180910390fd5b8051825114610ca7576040517f08c379a0000000000000000000000000000000000000000000000000000000008152600401610c9e9061160e565b60405180910390fd5b60005b8251811015610da5576000838281518110610cee577f4e487b7100000000000000000000000000000000000000000000000000000000600052603260045260246000fd5b602002602001015190506000838381518110610d33577f4e487b7100000000000000000000000000000000000000000000000000000000600052603260045260246000fd5b60200260200101519050610d498787848461062e565b610d51610e57565b610d90576040517f08c379a0000000000000000000000000000000000000000000000000000000008152600401610d879061166e565b60405180910390fd5b50508080610d9d906119d8565b915050610caa565b508273ffffffffffffffffffffffffffffffffffffffff168473ffffffffffffffffffffffffffffffffffffffff163373ffffffffffffffffffffffffffffffffffffffff167f304d85e78a127d4497bfc5cbf5af163e1ad61fe463ce8cddb2c24d254002f57f8585604051610e1c92919061159a565b60405180910390a450505050565b60006001905090565b6001816000016000828254019250508190555050565b600081600001549050919050565b60006001905090565b828054610e6c90611975565b90600052602060002090601f016020900481019282610e8e5760008555610ed5565b82601f10610ea757805160ff1916838001178555610ed5565b82800160010185558215610ed5579182015b82811115610ed4578251825591602001919060010190610eb9565b5b509050610ee29190610ee6565b5090565b5b80821115610eff576000816000905550600101610ee7565b5090565b6000610f16610f1184611757565b611732565b90508083825260208201905082856020860282011115610f3557600080fd5b60005b85811015610f655781610f4b8882611019565b845260208401935060208301925050600181019050610f38565b5050509392505050565b6000610f82610f7d84611783565b611732565b90508083825260208201905082856020860282011115610fa157600080fd5b60005b85811015610fd15781610fb788826110d6565b845260208401935060208301925050600181019050610fa4565b5050509392505050565b6000610fee610fe9846117af565b611732565b90508281526020810184848401111561100657600080fd5b611011848285611933565b509392505050565b60008135905061102881611c50565b92915050565b600082601f83011261103f57600080fd5b813561104f848260208601610f03565b91505092915050565b600082601f83011261106957600080fd5b8135611079848260208601610f6f565b91505092915050565b60008135905061109181611c67565b92915050565b6000813590506110a681611c7e565b92915050565b600082601f8301126110bd57600080fd5b81356110cd848260208601610fdb565b91505092915050565b6000813590506110e581611c95565b92915050565b600080604083850312156110fe57600080fd5b600061110c85828601611019565b925050602061111d85828601611019565b9150509250929050565b6000806000806080858703121561113d57600080fd5b600061114b87828801611019565b945050602061115c87828801611019565b935050604085013567ffffffffffffffff81111561117957600080fd5b61118587828801611058565b925050606085013567ffffffffffffffff8111156111a257600080fd5b6111ae87828801611058565b91505092959194509250565b600080600080608085870312156111d057600080fd5b60006111de87828801611019565b94505060206111ef87828801611019565b9350506040611200878288016110d6565b9250506060611211878288016110d6565b91505092959194509250565b6000806040838503121561123057600080fd5b600061123e85828601611019565b925050602061124f85828601611082565b9150509250929050565b6000806040838503121561126c57600080fd5b600061127a85828601611019565b925050602061128b858286016110d6565b9150509250929050565b600080604083850312156112a857600080fd5b600083013567ffffffffffffffff8111156112c257600080fd5b6112ce8582860161102e565b925050602083013567ffffffffffffffff8111156112eb57600080fd5b6112f785828601611058565b9150509250929050565b60006020828403121561131357600080fd5b600061132184828501611097565b91505092915050565b60006020828403121561133c57600080fd5b600061134a848285016110d6565b91505092915050565b6000806040838503121561136657600080fd5b6000611374858286016110d6565b925050602083013567ffffffffffffffff81111561139157600080fd5b61139d858286016110ac565b9150509250929050565b60006113b3838361155a565b60208301905092915050565b60006113ca826117f0565b6113d48185611813565b93506113df836117e0565b8060005b838110156114105781516113f788826113a7565b975061140283611806565b9250506001810190506113e3565b5085935050505092915050565b611426816118d1565b82525050565b6000611437826117fb565b6114418185611824565b9350611451818560208601611942565b61145a81611aae565b840191505092915050565b6000611472602683611824565b915061147d82611abf565b604082019050919050565b6000611495603383611824565b91506114a082611b0e565b604082019050919050565b60006114b8600c83611824565b91506114c382611b5d565b602082019050919050565b60006114db601b83611824565b91506114e682611b86565b602082019050919050565b60006114fe602783611824565b915061150982611baf565b604082019050919050565b6000611521601583611824565b915061152c82611bfe565b602082019050919050565b6000611544600f83611824565b915061154f82611c27565b602082019050919050565b61156381611929565b82525050565b61157281611929565b82525050565b6000602082019050818103600083015261159281846113bf565b905092915050565b600060408201905081810360008301526115b481856113bf565b905081810360208301526115c881846113bf565b90509392505050565b60006020820190506115e6600083018461141d565b92915050565b60006020820190508181036000830152611606818461142c565b905092915050565b6000602082019050818103600083015261162781611465565b9050919050565b6000602082019050818103600083015261164781611488565b9050919050565b60006020820190508181036000830152611667816114ab565b9050919050565b60006020820190508181036000830152611687816114ce565b9050919050565b600060208201905081810360008301526116a7816114f1565b9050919050565b600060208201905081810360008301526116c781611514565b9050919050565b600060208201905081810360008301526116e781611537565b9050919050565b60006020820190506117036000830184611569565b92915050565b600060408201905061171e6000830185611569565b61172b6020830184611569565b9392505050565b600061173c61174d565b905061174882826119a7565b919050565b6000604051905090565b600067ffffffffffffffff82111561177257611771611a7f565b5b602082029050602081019050919050565b600067ffffffffffffffff82111561179e5761179d611a7f565b5b602082029050602081019050919050565b600067ffffffffffffffff8211156117ca576117c9611a7f565b5b6117d382611aae565b9050602081019050919050565b6000819050602082019050919050565b600081519050919050565b600081519050919050565b6000602082019050919050565b600082825260208201905092915050565b600082825260208201905092915050565b600061184082611929565b915061184b83611929565b9250827fffffffffffffffffffffffffffffffffffffffffffffffffffffffffffffffff038211156118805761187f611a21565b5b828201905092915050565b600061189682611929565b91506118a183611929565b9250828210156118b4576118b3611a21565b5b828203905092915050565b60006118ca82611909565b9050919050565b60008115159050919050565b60007fffffffff0000000000000000000000000000000000000000000000000000000082169050919050565b600073ffffffffffffffffffffffffffffffffffffffff82169050919050565b6000819050919050565b82818337600083830152505050565b60005b83811015611960578082015181840152602081019050611945565b8381111561196f576000848401525b50505050565b6000600282049050600182168061198d57607f821691505b602082108114156119a1576119a0611a50565b5b50919050565b6119b082611aae565b810181811067ffffffffffffffff821117156119cf576119ce611a7f565b5b80604052505050565b60006119e382611929565b91507fffffffffffffffffffffffffffffffffffffffffffffffffffffffffffffffff821415611a1657611a15611a21565b5b600182019050919050565b7f4e487b7100000000000000000000000000000000000000000000000000000000600052601160045260246000fd5b7f4e487b7100000000000000000000000000000000000000000000000000000000600052602260045260246000fd5b7f4e487b7100000000000000000000000000000000000000000000000000000000600052604160045260246000fd5b6000601f19601f8301169050919050565b7f49647320616e6420616d6f756e7420617265206e6f74207468652073616d652060008201527f6c656e6774680000000000000000000000000000000000000000000000000000602082015250565b7f4d73672e73656e646572206973206e6f7420746865206f776e6572206f72206160008201527f7070726f76656420746f207472616e7366657200000000000000000000000000602082015250565b7f4164647265737320697320300000000000000000000000000000000000000000600082015250565b7f5265636569766572206973206e6f7420696d706c656d656e7465640000000000600082015250565b7f4163636f756e747320616e642049647320617265206e6f74206f662073616d6560008201527f206c656e67746800000000000000000000000000000000000000000000000000602082015250565b7f496e73756666696369656e742042616c616e6163650000000000000000000000600082015250565b7f41646472657373206973207a65726f0000000000000000000000000000000000600082015250565b611c59816118bf565b8114611c6457600080fd5b50565b611c70816118d1565b8114611c7b57600080fd5b50565b611c87816118dd565b8114611c9257600080fd5b50565b611c9e81611929565b8114611ca957600080fd5b5056fea2646970667358221220d9d85c1d4dd72e6b374848f7802e96bda2e7ce165a721e6a93971da9f72de59064736f6c63430008040033",
  "linkReferences": {},
  "deployedLinkReferences": {}
}