{
  "_format": "hh-sol-artifact-1",
  "contractName": "NFTMarket",
  "sourceName": "contracts/NFTMarket.sol",
  "abi": [
    {
      "inputs": [],
      "stateMutability": "nonpayable",
      "type": "constructor"
    },
    {
      "anonymous": false,
      "inputs": [
        {
          "indexed": true,
          "internalType": "uint256",
          "name": "itemId",
          "type": "uint256"
        },
        {
          "indexed": true,
          "internalType": "address",
          "name": "nftContract",
          "type": "address"
        },
        {
          "indexed": true,
          "internalType": "uint256",
          "name": "tokenId",
          "type": "uint256"
        },
        {
          "indexed": false,
          "internalType": "address payable",
          "name": "seller",
          "type": "address"
        },
        {
          "indexed": false,
          "internalType": "address payable",
          "name": "owner",
          "type": "address"
        },
        {
          "indexed": false,
          "internalType": "address",
          "name": "thirdPerson",
          "type": "address"
        },
        {
          "indexed": false,
          "internalType": "uint256",
          "name": "thridPersonAmount",
          "type": "uint256"
        },
        {
          "indexed": false,
          "internalType": "uint256",
          "name": "price",
          "type": "uint256"
        },
        {
          "indexed": false,
          "internalType": "uint256",
          "name": "amount",
          "type": "uint256"
        },
        {
          "indexed": false,
          "internalType": "bool",
          "name": "sold",
          "type": "bool"
        }
      ],
      "name": "MarketItemCreated",
      "type": "event"
    },
    {
      "inputs": [
        {
          "internalType": "address",
          "name": "nftContract",
          "type": "address"
        },
        {
          "internalType": "uint256",
          "name": "tokenId",
          "type": "uint256"
        },
        {
          "internalType": "uint256",
          "name": "amount",
          "type": "uint256"
        },
        {
          "internalType": "uint256",
          "name": "price",
          "type": "uint256"
        }
      ],
      "name": "createMarketItem",
      "outputs": [],
      "stateMutability": "payable",
      "type": "function"
    },
    {
      "inputs": [
        {
          "internalType": "address",
          "name": "nftContract",
          "type": "address"
        },
        {
          "internalType": "uint256",
          "name": "itemId",
          "type": "uint256"
        },
        {
          "internalType": "uint256",
          "name": "amount",
          "type": "uint256"
        }
      ],
      "name": "createMarketSale",
      "outputs": [],
      "stateMutability": "payable",
      "type": "function"
    },
    {
      "inputs": [],
      "name": "fetchItemsCreated",
      "outputs": [
        {
          "components": [
            {
              "internalType": "uint256",
              "name": "itemId",
              "type": "uint256"
            },
            {
              "internalType": "address",
              "name": "nftContract",
              "type": "address"
            },
            {
              "internalType": "uint256",
              "name": "tokenId",
              "type": "uint256"
            },
            {
              "internalType": "address payable",
              "name": "seller",
              "type": "address"
            },
            {
              "internalType": "address payable",
              "name": "owner",
              "type": "address"
            },
            {
              "internalType": "address",
              "name": "thirdPerson",
              "type": "address"
            },
            {
              "internalType": "uint256",
              "name": "thridPersonAmount",
              "type": "uint256"
            },
            {
              "internalType": "uint256",
              "name": "price",
              "type": "uint256"
            },
            {
              "internalType": "uint256",
              "name": "amount",
              "type": "uint256"
            },
            {
              "internalType": "bool",
              "name": "sold",
              "type": "bool"
            }
          ],
          "internalType": "struct NFTMarket.MarketItem[]",
          "name": "",
          "type": "tuple[]"
        }
      ],
      "stateMutability": "view",
      "type": "function"
    },
    {
      "inputs": [],
      "name": "fetchMarketItems",
      "outputs": [
        {
          "components": [
            {
              "internalType": "uint256",
              "name": "itemId",
              "type": "uint256"
            },
            {
              "internalType": "address",
              "name": "nftContract",
              "type": "address"
            },
            {
              "internalType": "uint256",
              "name": "tokenId",
              "type": "uint256"
            },
            {
              "internalType": "address payable",
              "name": "seller",
              "type": "address"
            },
            {
              "internalType": "address payable",
              "name": "owner",
              "type": "address"
            },
            {
              "internalType": "address",
              "name": "thirdPerson",
              "type": "address"
            },
            {
              "internalType": "uint256",
              "name": "thridPersonAmount",
              "type": "uint256"
            },
            {
              "internalType": "uint256",
              "name": "price",
              "type": "uint256"
            },
            {
              "internalType": "uint256",
              "name": "amount",
              "type": "uint256"
            },
            {
              "internalType": "bool",
              "name": "sold",
              "type": "bool"
            }
          ],
          "internalType": "struct NFTMarket.MarketItem[]",
          "name": "",
          "type": "tuple[]"
        }
      ],
      "stateMutability": "view",
      "type": "function"
    },
    {
      "inputs": [],
      "name": "fetchMyNFTs",
      "outputs": [
        {
          "components": [
            {
              "internalType": "uint256",
              "name": "itemId",
              "type": "uint256"
            },
            {
              "internalType": "address",
              "name": "nftContract",
              "type": "address"
            },
            {
              "internalType": "uint256",
              "name": "tokenId",
              "type": "uint256"
            },
            {
              "internalType": "address payable",
              "name": "seller",
              "type": "address"
            },
            {
              "internalType": "address payable",
              "name": "owner",
              "type": "address"
            },
            {
              "internalType": "address",
              "name": "thirdPerson",
              "type": "address"
            },
            {
              "internalType": "uint256",
              "name": "thridPersonAmount",
              "type": "uint256"
            },
            {
              "internalType": "uint256",
              "name": "price",
              "type": "uint256"
            },
            {
              "internalType": "uint256",
              "name": "amount",
              "type": "uint256"
            },
            {
              "internalType": "bool",
              "name": "sold",
              "type": "bool"
            }
          ],
          "internalType": "struct NFTMarket.MarketItem[]",
          "name": "",
          "type": "tuple[]"
        }
      ],
      "stateMutability": "view",
      "type": "function"
    }
  ],
  "bytecode": "0x608060405234801561001057600080fd5b50600160008190555033600360006101000a81548173ffffffffffffffffffffffffffffffffffffffff021916908373ffffffffffffffffffffffffffffffffffffffff160217905550611b94806100696000396000f3fe60806040526004361061004a5760003560e01c80630f08efe01461004f578063202e37401461007a57806321cf91ac146100a5578063599ba234146100c1578063f064c32e146100dd575b600080fd5b34801561005b57600080fd5b50610064610108565b6040516100719190611855565b60405180910390f35b34801561008657600080fd5b5061008f61047b565b60405161009c9190611855565b60405180910390f35b6100bf60048036038101906100ba91906114bc565b610984565b005b6100db60048036038101906100d6919061150b565b610bf6565b005b3480156100e957600080fd5b506100f2610fa8565b6040516100ff9190611855565b60405180910390f35b6060600061011660016113c1565b90506000808267ffffffffffffffff81111561015b577f4e487b7100000000000000000000000000000000000000000000000000000000600052604160045260246000fd5b60405190808252806020026020018201604052801561019457816020015b6101816113e5565b8152602001906001900390816101795790505b50905060005b8381101561047157600073ffffffffffffffffffffffffffffffffffffffff16600460006001846101cb9190611921565b815260200190815260200160002060040160009054906101000a900473ffffffffffffffffffffffffffffffffffffffff1673ffffffffffffffffffffffffffffffffffffffff16141561045e5760006004600060018461022c9190611921565b815260200190815260200160002060000154905060006004600083815260200190815260200160002090508060405180610140016040529081600082015481526020016001820160009054906101000a900473ffffffffffffffffffffffffffffffffffffffff1673ffffffffffffffffffffffffffffffffffffffff1673ffffffffffffffffffffffffffffffffffffffff168152602001600282015481526020016003820160009054906101000a900473ffffffffffffffffffffffffffffffffffffffff1673ffffffffffffffffffffffffffffffffffffffff1673ffffffffffffffffffffffffffffffffffffffff1681526020016004820160009054906101000a900473ffffffffffffffffffffffffffffffffffffffff1673ffffffffffffffffffffffffffffffffffffffff1673ffffffffffffffffffffffffffffffffffffffff1681526020016005820160009054906101000a900473ffffffffffffffffffffffffffffffffffffffff1673ffffffffffffffffffffffffffffffffffffffff1673ffffffffffffffffffffffffffffffffffffffff1681526020016006820154815260200160078201548152602001600882015481526020016009820160009054906101000a900460ff161515151581525050848681518110610442577f4e487b7100000000000000000000000000000000000000000000000000000000600052603260045260246000fd5b6020026020010181905250848061045890611a17565b95505050505b808061046990611a17565b91505061019a565b5080935050505090565b6060600061048960016113c1565b905060008060005b838110156105a9573373ffffffffffffffffffffffffffffffffffffffff16600460006001846104c19190611921565b815260200190815260200160002060040160009054906101000a900473ffffffffffffffffffffffffffffffffffffffff1673ffffffffffffffffffffffffffffffffffffffff16148061058257503373ffffffffffffffffffffffffffffffffffffffff16600460006001846105389190611921565b815260200190815260200160002060050160009054906101000a900473ffffffffffffffffffffffffffffffffffffffff1673ffffffffffffffffffffffffffffffffffffffff16145b1561059657818061059290611a17565b9250505b80806105a190611a17565b915050610491565b5060008167ffffffffffffffff8111156105ec577f4e487b7100000000000000000000000000000000000000000000000000000000600052604160045260246000fd5b60405190808252806020026020018201604052801561062557816020015b6106126113e5565b81526020019060019003908161060a5790505b50905060005b84811015610979573373ffffffffffffffffffffffffffffffffffffffff166004600060018461065b9190611921565b815260200190815260200160002060040160009054906101000a900473ffffffffffffffffffffffffffffffffffffffff1673ffffffffffffffffffffffffffffffffffffffff16148061071c57503373ffffffffffffffffffffffffffffffffffffffff16600460006001846106d29190611921565b815260200190815260200160002060050160009054906101000a900473ffffffffffffffffffffffffffffffffffffffff1673ffffffffffffffffffffffffffffffffffffffff16145b15610966576000600460006001846107349190611921565b815260200190815260200160002060000154905060006004600083815260200190815260200160002090508060405180610140016040529081600082015481526020016001820160009054906101000a900473ffffffffffffffffffffffffffffffffffffffff1673ffffffffffffffffffffffffffffffffffffffff1673ffffffffffffffffffffffffffffffffffffffff168152602001600282015481526020016003820160009054906101000a900473ffffffffffffffffffffffffffffffffffffffff1673ffffffffffffffffffffffffffffffffffffffff1673ffffffffffffffffffffffffffffffffffffffff1681526020016004820160009054906101000a900473ffffffffffffffffffffffffffffffffffffffff1673ffffffffffffffffffffffffffffffffffffffff1673ffffffffffffffffffffffffffffffffffffffff1681526020016005820160009054906101000a900473ffffffffffffffffffffffffffffffffffffffff1673ffffffffffffffffffffffffffffffffffffffff1673ffffffffffffffffffffffffffffffffffffffff1681526020016006820154815260200160078201548152602001600882015481526020016009820160009054906101000a900460ff16151515158152505084878151811061094a577f4e487b7100000000000000000000000000000000000000000000000000000000600052603260045260246000fd5b6020026020010181905250858061096090611a17565b96505050505b808061097190611a17565b91505061062b565b508094505050505090565b600260005414156109ca576040517f08c379a00000000000000000000000000000000000000000000000000000000081526004016109c1906118b7565b60405180910390fd5b6002600081905550600060046000848152602001908152602001600020600701549050600060046000858152602001908152602001600020600201549050813414610a4a576040517f08c379a0000000000000000000000000000000000000000000000000000000008152600401610a4190611897565b60405180910390fd5b6004600085815260200190815260200160002060030160009054906101000a900473ffffffffffffffffffffffffffffffffffffffff1673ffffffffffffffffffffffffffffffffffffffff166108fc349081150290604051600060405180830381858888f19350505050158015610ac6573d6000803e3d6000fd5b508473ffffffffffffffffffffffffffffffffffffffff16631d6456c4303384876040518563ffffffff1660e01b8152600401610b069493929190611810565b600060405180830381600087803b158015610b2057600080fd5b505af1158015610b34573d6000803e3d6000fd5b50505050336004600086815260200190815260200160002060050160006101000a81548173ffffffffffffffffffffffffffffffffffffffff021916908373ffffffffffffffffffffffffffffffffffffffff16021790555082600460008681526020019081526020016000206006016000828254610bb39190611921565b9250508190555082600460008681526020019081526020016000206008016000828254610be09190611977565b9250508190555050506001600081905550505050565b60026000541415610c3c576040517f08c379a0000000000000000000000000000000000000000000000000000000008152600401610c33906118b7565b60405180910390fd5b600260008190555060008111610c87576040517f08c379a0000000000000000000000000000000000000000000000000000000008152600401610c7e90611877565b60405180910390fd5b610c9160016113cf565b6000610c9d60016113c1565b90506040518061014001604052808281526020018673ffffffffffffffffffffffffffffffffffffffff1681526020018581526020013373ffffffffffffffffffffffffffffffffffffffff168152602001600073ffffffffffffffffffffffffffffffffffffffff168152602001600073ffffffffffffffffffffffffffffffffffffffff1681526020016000815260200183815260200184815260200160001515815250600460008381526020019081526020016000206000820151816000015560208201518160010160006101000a81548173ffffffffffffffffffffffffffffffffffffffff021916908373ffffffffffffffffffffffffffffffffffffffff1602179055506040820151816002015560608201518160030160006101000a81548173ffffffffffffffffffffffffffffffffffffffff021916908373ffffffffffffffffffffffffffffffffffffffff16021790555060808201518160040160006101000a81548173ffffffffffffffffffffffffffffffffffffffff021916908373ffffffffffffffffffffffffffffffffffffffff16021790555060a08201518160050160006101000a81548173ffffffffffffffffffffffffffffffffffffffff021916908373ffffffffffffffffffffffffffffffffffffffff16021790555060c0820151816006015560e0820151816007015561010082015181600801556101208201518160090160006101000a81548160ff0219169083151502179055509050508473ffffffffffffffffffffffffffffffffffffffff16631d6456c4333087876040518563ffffffff1660e01b8152600401610f089493929190611810565b600060405180830381600087803b158015610f2257600080fd5b505af1158015610f36573d6000803e3d6000fd5b50505050838573ffffffffffffffffffffffffffffffffffffffff16827f3ba9e110578a104189d30e6215835cb134c130ddbf8ba3878fea95a88856634d336000806000898b6000604051610f9197969594939291906117a1565b60405180910390a450600160008190555050505050565b60606000610fb660016113c1565b905060008060005b8381101561105e573373ffffffffffffffffffffffffffffffffffffffff1660046000600184610fee9190611921565b815260200190815260200160002060030160009054906101000a900473ffffffffffffffffffffffffffffffffffffffff1673ffffffffffffffffffffffffffffffffffffffff16141561104b57828061104790611a17565b9350505b808061105690611a17565b915050610fbe565b5060008267ffffffffffffffff8111156110a1577f4e487b7100000000000000000000000000000000000000000000000000000000600052604160045260246000fd5b6040519080825280602002602001820160405280156110da57816020015b6110c76113e5565b8152602001906001900390816110bf5790505b50905060005b848110156113b6573373ffffffffffffffffffffffffffffffffffffffff16600460006001846111109190611921565b815260200190815260200160002060030160009054906101000a900473ffffffffffffffffffffffffffffffffffffffff1673ffffffffffffffffffffffffffffffffffffffff1614156113a3576000600460006001846111719190611921565b815260200190815260200160002060000154905060006004600083815260200190815260200160002090508060405180610140016040529081600082015481526020016001820160009054906101000a900473ffffffffffffffffffffffffffffffffffffffff1673ffffffffffffffffffffffffffffffffffffffff1673ffffffffffffffffffffffffffffffffffffffff168152602001600282015481526020016003820160009054906101000a900473ffffffffffffffffffffffffffffffffffffffff1673ffffffffffffffffffffffffffffffffffffffff1673ffffffffffffffffffffffffffffffffffffffff1681526020016004820160009054906101000a900473ffffffffffffffffffffffffffffffffffffffff1673ffffffffffffffffffffffffffffffffffffffff1673ffffffffffffffffffffffffffffffffffffffff1681526020016005820160009054906101000a900473ffffffffffffffffffffffffffffffffffffffff1673ffffffffffffffffffffffffffffffffffffffff1673ffffffffffffffffffffffffffffffffffffffff1681526020016006820154815260200160078201548152602001600882015481526020016009820160009054906101000a900460ff161515151581525050848681518110611387577f4e487b7100000000000000000000000000000000000000000000000000000000600052603260045260246000fd5b6020026020010181905250848061139d90611a17565b95505050505b80806113ae90611a17565b9150506110e0565b508094505050505090565b600081600001549050919050565b6001816000016000828254019250508190555050565b60405180610140016040528060008152602001600073ffffffffffffffffffffffffffffffffffffffff16815260200160008152602001600073ffffffffffffffffffffffffffffffffffffffff168152602001600073ffffffffffffffffffffffffffffffffffffffff168152602001600073ffffffffffffffffffffffffffffffffffffffff1681526020016000815260200160008152602001600081526020016000151581525090565b6000813590506114a181611b30565b92915050565b6000813590506114b681611b47565b92915050565b6000806000606084860312156114d157600080fd5b60006114df86828701611492565b93505060206114f0868287016114a7565b9250506040611501868287016114a7565b9150509250925092565b6000806000806080858703121561152157600080fd5b600061152f87828801611492565b9450506020611540878288016114a7565b9350506040611551878288016114a7565b9250506060611562878288016114a7565b91505092959194509250565b600061157a83836116b7565b6101408301905092915050565b611590816119bd565b82525050565b61159f816119bd565b82525050565b6115ae816119ab565b82525050565b6115bd816119ab565b82525050565b60006115ce826118e7565b6115d881856118ff565b93506115e3836118d7565b8060005b838110156116145781516115fb888261156e565b9750611606836118f2565b9250506001810190506115e7565b5085935050505092915050565b61162a816119cf565b82525050565b611639816119cf565b82525050565b61164881611a05565b82525050565b600061165b601b83611910565b915061166682611a8f565b602082019050919050565b600061167e604083611910565b915061168982611ab8565b604082019050919050565b60006116a1601f83611910565b91506116ac82611b07565b602082019050919050565b610140820160008201516116ce6000850182611783565b5060208201516116e160208501826115a5565b5060408201516116f46040850182611783565b5060608201516117076060850182611587565b50608082015161171a6080850182611587565b5060a082015161172d60a08501826115a5565b5060c082015161174060c0850182611783565b5060e082015161175360e0850182611783565b50610100820151611768610100850182611783565b5061012082015161177d610120850182611621565b50505050565b61178c816119fb565b82525050565b61179b816119fb565b82525050565b600060e0820190506117b6600083018a611596565b6117c36020830189611596565b6117d060408301886115b4565b6117dd606083018761163f565b6117ea6080830186611792565b6117f760a0830185611792565b61180460c0830184611630565b98975050505050505050565b600060808201905061182560008301876115b4565b61183260208301866115b4565b61183f6040830185611792565b61184c6060830184611792565b95945050505050565b6000602082019050818103600083015261186f81846115c3565b905092915050565b600060208201905081810360008301526118908161164e565b9050919050565b600060208201905081810360008301526118b081611671565b9050919050565b600060208201905081810360008301526118d081611694565b9050919050565b6000819050602082019050919050565b600081519050919050565b6000602082019050919050565b600082825260208201905092915050565b600082825260208201905092915050565b600061192c826119fb565b9150611937836119fb565b9250827fffffffffffffffffffffffffffffffffffffffffffffffffffffffffffffffff0382111561196c5761196b611a60565b5b828201905092915050565b6000611982826119fb565b915061198d836119fb565b9250828210156119a05761199f611a60565b5b828203905092915050565b60006119b6826119db565b9050919050565b60006119c8826119db565b9050919050565b60008115159050919050565b600073ffffffffffffffffffffffffffffffffffffffff82169050919050565b6000819050919050565b6000611a10826119fb565b9050919050565b6000611a22826119fb565b91507fffffffffffffffffffffffffffffffffffffffffffffffffffffffffffffffff821415611a5557611a54611a60565b5b600182019050919050565b7f4e487b7100000000000000000000000000000000000000000000000000000000600052601160045260246000fd5b7f5072696365206d7573742062652061746c656173742031207765690000000000600082015250565b7f506c65617365207375626d6974207468652061736b696e67207072696365206960008201527f6e206f7264657220746f20636f6d706c65746520746865207075726368617365602082015250565b7f5265656e7472616e637947756172643a207265656e7472616e742063616c6c00600082015250565b611b39816119ab565b8114611b4457600080fd5b50565b611b50816119fb565b8114611b5b57600080fd5b5056fea26469706673582212201268f910039025fc0aef2e76886bdf0166c05dab3dd9f5ba90ff612a7f25369c64736f6c63430008040033",
  "linkReferences": {},
  "deployedLinkReferences": {}
}