{
  "_format": "hh-sol-artifact-1",
  "contractName": "NFTMarket",
  "sourceName": "contracts/NFTMarket.sol",
  "abi": [
    {
      "inputs": [],
      "stateMutability": "nonpayable",
      "type": "constructor"
    },
    {
      "anonymous": false,
      "inputs": [
        {
          "indexed": true,
          "internalType": "uint256",
          "name": "itemId",
          "type": "uint256"
        },
        {
          "indexed": true,
          "internalType": "address",
          "name": "nftContract",
          "type": "address"
        },
        {
          "indexed": true,
          "internalType": "uint256",
          "name": "tokenId",
          "type": "uint256"
        },
        {
          "indexed": false,
          "internalType": "address payable",
          "name": "seller",
          "type": "address"
        },
        {
          "indexed": false,
          "internalType": "address payable",
          "name": "owner",
          "type": "address"
        },
        {
          "indexed": false,
          "internalType": "uint256",
          "name": "price",
          "type": "uint256"
        },
        {
          "indexed": false,
          "internalType": "uint256",
          "name": "amount",
          "type": "uint256"
        },
        {
          "indexed": false,
          "internalType": "bool",
          "name": "sold",
          "type": "bool"
        }
      ],
      "name": "MarketItemCreated",
      "type": "event"
    },
    {
      "inputs": [
        {
          "internalType": "address",
          "name": "nftContract",
          "type": "address"
        },
        {
          "internalType": "uint256",
          "name": "tokenId",
          "type": "uint256"
        },
        {
          "internalType": "uint256",
          "name": "amount",
          "type": "uint256"
        },
        {
          "internalType": "uint256",
          "name": "price",
          "type": "uint256"
        }
      ],
      "name": "createMarketItem",
      "outputs": [],
      "stateMutability": "payable",
      "type": "function"
    },
    {
      "inputs": [
        {
          "internalType": "address",
          "name": "nftContract",
          "type": "address"
        },
        {
          "internalType": "uint256",
          "name": "itemId",
          "type": "uint256"
        },
        {
          "internalType": "uint256",
          "name": "amount",
          "type": "uint256"
        }
      ],
      "name": "createMarketSale",
      "outputs": [],
      "stateMutability": "payable",
      "type": "function"
    },
    {
      "inputs": [],
      "name": "fetchItemsCreated",
      "outputs": [
        {
          "components": [
            {
              "internalType": "uint256",
              "name": "itemId",
              "type": "uint256"
            },
            {
              "internalType": "address",
              "name": "nftContract",
              "type": "address"
            },
            {
              "internalType": "uint256",
              "name": "tokenId",
              "type": "uint256"
            },
            {
              "internalType": "address payable",
              "name": "seller",
              "type": "address"
            },
            {
              "internalType": "address payable",
              "name": "owner",
              "type": "address"
            },
            {
              "internalType": "uint256",
              "name": "price",
              "type": "uint256"
            },
            {
              "internalType": "uint256",
              "name": "amount",
              "type": "uint256"
            },
            {
              "internalType": "bool",
              "name": "sold",
              "type": "bool"
            }
          ],
          "internalType": "struct NFTMarket.MarketItem[]",
          "name": "",
          "type": "tuple[]"
        }
      ],
      "stateMutability": "view",
      "type": "function"
    },
    {
      "inputs": [],
      "name": "fetchMarketItems",
      "outputs": [
        {
          "components": [
            {
              "internalType": "uint256",
              "name": "itemId",
              "type": "uint256"
            },
            {
              "internalType": "address",
              "name": "nftContract",
              "type": "address"
            },
            {
              "internalType": "uint256",
              "name": "tokenId",
              "type": "uint256"
            },
            {
              "internalType": "address payable",
              "name": "seller",
              "type": "address"
            },
            {
              "internalType": "address payable",
              "name": "owner",
              "type": "address"
            },
            {
              "internalType": "uint256",
              "name": "price",
              "type": "uint256"
            },
            {
              "internalType": "uint256",
              "name": "amount",
              "type": "uint256"
            },
            {
              "internalType": "bool",
              "name": "sold",
              "type": "bool"
            }
          ],
          "internalType": "struct NFTMarket.MarketItem[]",
          "name": "",
          "type": "tuple[]"
        }
      ],
      "stateMutability": "view",
      "type": "function"
    },
    {
      "inputs": [],
      "name": "fetchMyNFTs",
      "outputs": [
        {
          "components": [
            {
              "internalType": "uint256",
              "name": "itemId",
              "type": "uint256"
            },
            {
              "internalType": "address",
              "name": "nftContract",
              "type": "address"
            },
            {
              "internalType": "uint256",
              "name": "tokenId",
              "type": "uint256"
            },
            {
              "internalType": "address payable",
              "name": "seller",
              "type": "address"
            },
            {
              "internalType": "address payable",
              "name": "owner",
              "type": "address"
            },
            {
              "internalType": "uint256",
              "name": "price",
              "type": "uint256"
            },
            {
              "internalType": "uint256",
              "name": "amount",
              "type": "uint256"
            },
            {
              "internalType": "bool",
              "name": "sold",
              "type": "bool"
            }
          ],
          "internalType": "struct NFTMarket.MarketItem[]",
          "name": "",
          "type": "tuple[]"
        }
      ],
      "stateMutability": "view",
      "type": "function"
    }
  ],
  "bytecode": "0x608060405234801561001057600080fd5b50600160008190555033600360006101000a81548173ffffffffffffffffffffffffffffffffffffffff021916908373ffffffffffffffffffffffffffffffffffffffff16021790555061187f806100696000396000f3fe60806040526004361061004a5760003560e01c80630f08efe01461004f578063202e37401461007a57806321cf91ac146100a5578063599ba234146100c1578063f064c32e146100dd575b600080fd5b34801561005b57600080fd5b50610064610108565b6040516100719190611552565b60405180910390f35b34801561008657600080fd5b5061008f61043e565b60405161009c9190611552565b60405180910390f35b6100bf60048036038101906100ba919061120e565b6107f7565b005b6100db60048036038101906100d6919061125d565b610a48565b005b3480156100e957600080fd5b506100f2610d7e565b6040516100ff9190611552565b60405180910390f35b606060006101166001611137565b905060006101246002611137565b61012e6001611137565b6101389190611674565b90506000808267ffffffffffffffff81111561017d577f4e487b7100000000000000000000000000000000000000000000000000000000600052604160045260246000fd5b6040519080825280602002602001820160405280156101b657816020015b6101a361115b565b81526020019060019003908161019b5790505b50905060005b8481101561043357600073ffffffffffffffffffffffffffffffffffffffff16600460006001846101ed919061161e565b815260200190815260200160002060040160009054906101000a900473ffffffffffffffffffffffffffffffffffffffff1673ffffffffffffffffffffffffffffffffffffffff1614156104205760006004600060018461024e919061161e565b815260200190815260200160002060000154905060006004600083815260200190815260200160002090508060405180610100016040529081600082015481526020016001820160009054906101000a900473ffffffffffffffffffffffffffffffffffffffff1673ffffffffffffffffffffffffffffffffffffffff1673ffffffffffffffffffffffffffffffffffffffff168152602001600282015481526020016003820160009054906101000a900473ffffffffffffffffffffffffffffffffffffffff1673ffffffffffffffffffffffffffffffffffffffff1673ffffffffffffffffffffffffffffffffffffffff1681526020016004820160009054906101000a900473ffffffffffffffffffffffffffffffffffffffff1673ffffffffffffffffffffffffffffffffffffffff1673ffffffffffffffffffffffffffffffffffffffff16815260200160058201548152602001600682015481526020016007820160009054906101000a900460ff161515151581525050848681518110610404577f4e487b7100000000000000000000000000000000000000000000000000000000600052603260045260246000fd5b6020026020010181905250848061041a90611702565b95505050505b808061042b90611702565b9150506101bc565b508094505050505090565b6060600061044c6001611137565b905060008060005b838110156104f4573373ffffffffffffffffffffffffffffffffffffffff1660046000600184610484919061161e565b815260200190815260200160002060040160009054906101000a900473ffffffffffffffffffffffffffffffffffffffff1673ffffffffffffffffffffffffffffffffffffffff1614156104e15781806104dd90611702565b9250505b80806104ec90611702565b915050610454565b5060008167ffffffffffffffff811115610537577f4e487b7100000000000000000000000000000000000000000000000000000000600052604160045260246000fd5b60405190808252806020026020018201604052801561057057816020015b61055d61115b565b8152602001906001900390816105555790505b50905060005b848110156107ec573373ffffffffffffffffffffffffffffffffffffffff16600460006001846105a6919061161e565b815260200190815260200160002060040160009054906101000a900473ffffffffffffffffffffffffffffffffffffffff1673ffffffffffffffffffffffffffffffffffffffff1614156107d957600060046000600184610607919061161e565b815260200190815260200160002060000154905060006004600083815260200190815260200160002090508060405180610100016040529081600082015481526020016001820160009054906101000a900473ffffffffffffffffffffffffffffffffffffffff1673ffffffffffffffffffffffffffffffffffffffff1673ffffffffffffffffffffffffffffffffffffffff168152602001600282015481526020016003820160009054906101000a900473ffffffffffffffffffffffffffffffffffffffff1673ffffffffffffffffffffffffffffffffffffffff1673ffffffffffffffffffffffffffffffffffffffff1681526020016004820160009054906101000a900473ffffffffffffffffffffffffffffffffffffffff1673ffffffffffffffffffffffffffffffffffffffff1673ffffffffffffffffffffffffffffffffffffffff16815260200160058201548152602001600682015481526020016007820160009054906101000a900460ff1615151515815250508487815181106107bd577f4e487b7100000000000000000000000000000000000000000000000000000000600052603260045260246000fd5b602002602001018190525085806107d390611702565b96505050505b80806107e490611702565b915050610576565b508094505050505090565b6002600054141561083d576040517f08c379a0000000000000000000000000000000000000000000000000000000008152600401610834906115b4565b60405180910390fd5b60026000819055506000600460008481526020019081526020016000206005015490506000600460008581526020019081526020016000206002015490508134146108bd576040517f08c379a00000000000000000000000000000000000000000000000000000000081526004016108b490611594565b60405180910390fd5b6004600085815260200190815260200160002060030160009054906101000a900473ffffffffffffffffffffffffffffffffffffffff1673ffffffffffffffffffffffffffffffffffffffff166108fc349081150290604051600060405180830381858888f19350505050158015610939573d6000803e3d6000fd5b508473ffffffffffffffffffffffffffffffffffffffff16631d6456c4303384876040518563ffffffff1660e01b8152600401610979949392919061150d565b600060405180830381600087803b15801561099357600080fd5b505af11580156109a7573d6000803e3d6000fd5b50505050336004600086815260200190815260200160002060040160006101000a81548173ffffffffffffffffffffffffffffffffffffffff021916908373ffffffffffffffffffffffffffffffffffffffff16021790555060016004600086815260200190815260200160002060070160006101000a81548160ff021916908315150217905550610a396002611145565b50506001600081905550505050565b60026000541415610a8e576040517f08c379a0000000000000000000000000000000000000000000000000000000008152600401610a85906115b4565b60405180910390fd5b600260008190555060008111610ad9576040517f08c379a0000000000000000000000000000000000000000000000000000000008152600401610ad090611574565b60405180910390fd5b610ae36001611145565b6000610aef6001611137565b90506040518061010001604052808281526020018673ffffffffffffffffffffffffffffffffffffffff1681526020018581526020013373ffffffffffffffffffffffffffffffffffffffff168152602001600073ffffffffffffffffffffffffffffffffffffffff16815260200183815260200184815260200160001515815250600460008381526020019081526020016000206000820151816000015560208201518160010160006101000a81548173ffffffffffffffffffffffffffffffffffffffff021916908373ffffffffffffffffffffffffffffffffffffffff1602179055506040820151816002015560608201518160030160006101000a81548173ffffffffffffffffffffffffffffffffffffffff021916908373ffffffffffffffffffffffffffffffffffffffff16021790555060808201518160040160006101000a81548173ffffffffffffffffffffffffffffffffffffffff021916908373ffffffffffffffffffffffffffffffffffffffff16021790555060a0820151816005015560c0820151816006015560e08201518160070160006101000a81548160ff0219169083151502179055509050508473ffffffffffffffffffffffffffffffffffffffff16631d6456c4333087876040518563ffffffff1660e01b8152600401610ce3949392919061150d565b600060405180830381600087803b158015610cfd57600080fd5b505af1158015610d11573d6000803e3d6000fd5b50505050838573ffffffffffffffffffffffffffffffffffffffff16827fd0bb1eaea8ab6cd0c288f209757734c5e280d8f4e05f93b1db82da8db727875833600087896000604051610d679594939291906114ba565b60405180910390a450600160008190555050505050565b60606000610d8c6001611137565b905060008060005b83811015610e34573373ffffffffffffffffffffffffffffffffffffffff1660046000600184610dc4919061161e565b815260200190815260200160002060030160009054906101000a900473ffffffffffffffffffffffffffffffffffffffff1673ffffffffffffffffffffffffffffffffffffffff161415610e21578280610e1d90611702565b9350505b8080610e2c90611702565b915050610d94565b5060008267ffffffffffffffff811115610e77577f4e487b7100000000000000000000000000000000000000000000000000000000600052604160045260246000fd5b604051908082528060200260200182016040528015610eb057816020015b610e9d61115b565b815260200190600190039081610e955790505b50905060005b8481101561112c573373ffffffffffffffffffffffffffffffffffffffff1660046000600184610ee6919061161e565b815260200190815260200160002060030160009054906101000a900473ffffffffffffffffffffffffffffffffffffffff1673ffffffffffffffffffffffffffffffffffffffff16141561111957600060046000600184610f47919061161e565b815260200190815260200160002060000154905060006004600083815260200190815260200160002090508060405180610100016040529081600082015481526020016001820160009054906101000a900473ffffffffffffffffffffffffffffffffffffffff1673ffffffffffffffffffffffffffffffffffffffff1673ffffffffffffffffffffffffffffffffffffffff168152602001600282015481526020016003820160009054906101000a900473ffffffffffffffffffffffffffffffffffffffff1673ffffffffffffffffffffffffffffffffffffffff1673ffffffffffffffffffffffffffffffffffffffff1681526020016004820160009054906101000a900473ffffffffffffffffffffffffffffffffffffffff1673ffffffffffffffffffffffffffffffffffffffff1673ffffffffffffffffffffffffffffffffffffffff16815260200160058201548152602001600682015481526020016007820160009054906101000a900460ff1615151515815250508486815181106110fd577f4e487b7100000000000000000000000000000000000000000000000000000000600052603260045260246000fd5b6020026020010181905250848061111390611702565b95505050505b808061112490611702565b915050610eb6565b508094505050505090565b600081600001549050919050565b6001816000016000828254019250508190555050565b60405180610100016040528060008152602001600073ffffffffffffffffffffffffffffffffffffffff16815260200160008152602001600073ffffffffffffffffffffffffffffffffffffffff168152602001600073ffffffffffffffffffffffffffffffffffffffff16815260200160008152602001600081526020016000151581525090565b6000813590506111f38161181b565b92915050565b60008135905061120881611832565b92915050565b60008060006060848603121561122357600080fd5b6000611231868287016111e4565b9350506020611242868287016111f9565b9250506040611253868287016111f9565b9150509250925092565b6000806000806080858703121561127357600080fd5b6000611281878288016111e4565b9450506020611292878288016111f9565b93505060406112a3878288016111f9565b92505060606112b4878288016111f9565b91505092959194509250565b60006112cc83836113fa565b6101008301905092915050565b6112e2816116ba565b82525050565b6112f1816116ba565b82525050565b611300816116a8565b82525050565b61130f816116a8565b82525050565b6000611320826115e4565b61132a81856115fc565b9350611335836115d4565b8060005b8381101561136657815161134d88826112c0565b9750611358836115ef565b925050600181019050611339565b5085935050505092915050565b61137c816116cc565b82525050565b61138b816116cc565b82525050565b600061139e601b8361160d565b91506113a98261177a565b602082019050919050565b60006113c160408361160d565b91506113cc826117a3565b604082019050919050565b60006113e4601f8361160d565b91506113ef826117f2565b602082019050919050565b61010082016000820151611411600085018261149c565b50602082015161142460208501826112f7565b506040820151611437604085018261149c565b50606082015161144a60608501826112d9565b50608082015161145d60808501826112d9565b5060a082015161147060a085018261149c565b5060c082015161148360c085018261149c565b5060e082015161149660e0850182611373565b50505050565b6114a5816116f8565b82525050565b6114b4816116f8565b82525050565b600060a0820190506114cf60008301886112e8565b6114dc60208301876112e8565b6114e960408301866114ab565b6114f660608301856114ab565b6115036080830184611382565b9695505050505050565b60006080820190506115226000830187611306565b61152f6020830186611306565b61153c60408301856114ab565b61154960608301846114ab565b95945050505050565b6000602082019050818103600083015261156c8184611315565b905092915050565b6000602082019050818103600083015261158d81611391565b9050919050565b600060208201905081810360008301526115ad816113b4565b9050919050565b600060208201905081810360008301526115cd816113d7565b9050919050565b6000819050602082019050919050565b600081519050919050565b6000602082019050919050565b600082825260208201905092915050565b600082825260208201905092915050565b6000611629826116f8565b9150611634836116f8565b9250827fffffffffffffffffffffffffffffffffffffffffffffffffffffffffffffffff038211156116695761166861174b565b5b828201905092915050565b600061167f826116f8565b915061168a836116f8565b92508282101561169d5761169c61174b565b5b828203905092915050565b60006116b3826116d8565b9050919050565b60006116c5826116d8565b9050919050565b60008115159050919050565b600073ffffffffffffffffffffffffffffffffffffffff82169050919050565b6000819050919050565b600061170d826116f8565b91507fffffffffffffffffffffffffffffffffffffffffffffffffffffffffffffffff8214156117405761173f61174b565b5b600182019050919050565b7f4e487b7100000000000000000000000000000000000000000000000000000000600052601160045260246000fd5b7f5072696365206d7573742062652061746c656173742031207765690000000000600082015250565b7f506c65617365207375626d6974207468652061736b696e67207072696365206960008201527f6e206f7264657220746f20636f6d706c65746520746865207075726368617365602082015250565b7f5265656e7472616e637947756172643a207265656e7472616e742063616c6c00600082015250565b611824816116a8565b811461182f57600080fd5b50565b61183b816116f8565b811461184657600080fd5b5056fea2646970667358221220c5f796533e0501039e4a1f5f4c4e416e818e75068382468857cad80bf4b28d7e64736f6c63430008040033",
  "linkReferences": {},
  "deployedLinkReferences": {}
}